{
  "_format": "hh-sol-artifact-1",
  "contractName": "BlockNexSupply",
  "sourceName": "contracts/BlockNexSupply.sol",
  "abi": [
    {
      "inputs": [],
      "stateMutability": "nonpayable",
      "type": "constructor"
    },
    {
      "anonymous": false,
      "inputs": [
        {
          "indexed": false,
          "internalType": "uint256",
          "name": "procurementId",
          "type": "uint256"
        },
        {
          "indexed": false,
          "internalType": "uint256",
          "name": "offerId",
          "type": "uint256"
        },
        {
          "indexed": false,
          "internalType": "string",
          "name": "supplierUid",
          "type": "string"
        },
        {
          "indexed": false,
          "internalType": "string",
          "name": "dealerUid",
          "type": "string"
        }
      ],
      "name": "OfferAccepted",
      "type": "event"
    },
    {
      "anonymous": false,
      "inputs": [
        {
          "indexed": false,
          "internalType": "uint256",
          "name": "id",
          "type": "uint256"
        },
        {
          "indexed": false,
          "internalType": "uint256",
          "name": "procurementId",
          "type": "uint256"
        },
        {
          "indexed": false,
          "internalType": "string",
          "name": "supplierUid",
          "type": "string"
        },
        {
          "indexed": false,
          "internalType": "uint256",
          "name": "price",
          "type": "uint256"
        },
        {
          "indexed": false,
          "internalType": "string",
          "name": "details",
          "type": "string"
        }
      ],
      "name": "OfferSubmitted",
      "type": "event"
    },
    {
      "anonymous": false,
      "inputs": [
        {
          "indexed": false,
          "internalType": "uint256",
          "name": "id",
          "type": "uint256"
        },
        {
          "indexed": false,
          "internalType": "string",
          "name": "dealerUid",
          "type": "string"
        },
        {
          "indexed": false,
          "internalType": "string",
          "name": "skuId",
          "type": "string"
        },
        {
          "indexed": false,
          "internalType": "uint256",
          "name": "qty",
          "type": "uint256"
        }
      ],
      "name": "ProcurementCreated",
      "type": "event"
    },
    {
      "inputs": [
        {
          "internalType": "uint256",
          "name": "procurementId",
          "type": "uint256"
        },
        {
          "internalType": "uint256",
          "name": "offerId",
          "type": "uint256"
        }
      ],
      "name": "acceptOffer",
      "outputs": [],
      "stateMutability": "nonpayable",
      "type": "function"
    },
    {
      "inputs": [
        {
          "internalType": "string",
          "name": "dealerUid",
          "type": "string"
        },
        {
          "internalType": "string",
          "name": "skuId",
          "type": "string"
        },
        {
          "internalType": "uint256",
          "name": "qty",
          "type": "uint256"
        }
      ],
      "name": "createProcurement",
      "outputs": [
        {
          "internalType": "uint256",
          "name": "",
          "type": "uint256"
        }
      ],
      "stateMutability": "nonpayable",
      "type": "function"
    },
    {
      "inputs": [],
      "name": "nextOfferId",
      "outputs": [
        {
          "internalType": "uint256",
          "name": "",
          "type": "uint256"
        }
      ],
      "stateMutability": "view",
      "type": "function"
    },
    {
      "inputs": [],
      "name": "nextProcId",
      "outputs": [
        {
          "internalType": "uint256",
          "name": "",
          "type": "uint256"
        }
      ],
      "stateMutability": "view",
      "type": "function"
    },
    {
      "inputs": [
        {
          "internalType": "uint256",
          "name": "",
          "type": "uint256"
        }
      ],
      "name": "offers",
      "outputs": [
        {
          "internalType": "uint256",
          "name": "id",
          "type": "uint256"
        },
        {
          "internalType": "uint256",
          "name": "procurementId",
          "type": "uint256"
        },
        {
          "internalType": "string",
          "name": "supplierUid",
          "type": "string"
        },
        {
          "internalType": "uint256",
          "name": "price",
          "type": "uint256"
        },
        {
          "internalType": "string",
          "name": "details",
          "type": "string"
        },
        {
          "internalType": "uint64",
          "name": "createdAt",
          "type": "uint64"
        },
        {
          "internalType": "bool",
          "name": "accepted",
          "type": "bool"
        }
      ],
      "stateMutability": "view",
      "type": "function"
    },
    {
      "inputs": [],
      "name": "owner",
      "outputs": [
        {
          "internalType": "address",
          "name": "",
          "type": "address"
        }
      ],
      "stateMutability": "view",
      "type": "function"
    },
    {
      "inputs": [
        {
          "internalType": "uint256",
          "name": "",
          "type": "uint256"
        }
      ],
      "name": "procurements",
      "outputs": [
        {
          "internalType": "uint256",
          "name": "id",
          "type": "uint256"
        },
        {
          "internalType": "string",
          "name": "dealerUid",
          "type": "string"
        },
        {
          "internalType": "string",
          "name": "skuId",
          "type": "string"
        },
        {
          "internalType": "uint256",
          "name": "qty",
          "type": "uint256"
        },
        {
          "internalType": "uint64",
          "name": "createdAt",
          "type": "uint64"
        },
        {
          "internalType": "bool",
          "name": "ordered",
          "type": "bool"
        }
      ],
      "stateMutability": "view",
      "type": "function"
    },
    {
      "inputs": [
        {
          "internalType": "uint256",
          "name": "procurementId",
          "type": "uint256"
        },
        {
          "internalType": "string",
          "name": "supplierUid",
          "type": "string"
        },
        {
          "internalType": "uint256",
          "name": "price",
          "type": "uint256"
        },
        {
          "internalType": "string",
          "name": "details",
          "type": "string"
        }
      ],
      "name": "submitOffer",
      "outputs": [
        {
          "internalType": "uint256",
          "name": "",
          "type": "uint256"
        }
      ],
      "stateMutability": "nonpayable",
      "type": "function"
    }
  ],
  "bytecode": "0x608060405234801561001057600080fd5b50336000806101000a81548173ffffffffffffffffffffffffffffffffffffffff021916908373ffffffffffffffffffffffffffffffffffffffff160217905550611737806100606000396000f3fe608060405234801561001057600080fd5b50600436106100885760003560e01c80638da5cb5b1161005b5780638da5cb5b1461012d578063c5d37cf31461014b578063f5a4de9014610169578063fba277fc1461019e57610088565b80631f762a4f1461008d5780635f5d0655146100bd57806381257bd5146100db5780638a72ea6a146100f7575b600080fd5b6100a760048036038101906100a29190610cab565b6101ce565b6040516100b49190610d59565b60405180910390f35b6100c561040b565b6040516100d29190610d59565b60405180910390f35b6100f560048036038101906100f09190610d74565b610411565b005b610111600480360381019061010c9190610db4565b610640565b6040516101249796959493929190610e9e565b60405180910390f35b6101356107b3565b6040516101429190610f5c565b60405180910390f35b6101536107d7565b6040516101609190610d59565b60405180910390f35b610183600480360381019061017e9190610db4565b6107dd565b60405161019596959493929190610f77565b60405180910390f35b6101b860048036038101906101b39190610fe6565b61094a565b6040516101c59190610d59565b60405180910390f35b60008060009054906101000a900473ffffffffffffffffffffffffffffffffffffffff1673ffffffffffffffffffffffffffffffffffffffff163373ffffffffffffffffffffffffffffffffffffffff161461025f576040517f08c379a0000000000000000000000000000000000000000000000000000000008152600401610256906110bd565b60405180910390fd5b60006003600087815260200190815260200160002060000154036102b8576040517f08c379a00000000000000000000000000000000000000000000000000000000081526004016102af90611129565b60405180910390fd5b60006002600081546102c990611178565b91905081905590506040518060e001604052808281526020018781526020018681526020018581526020018481526020014267ffffffffffffffff16815260200160001515815250600460008381526020019081526020016000206000820151816000015560208201518160010155604082015181600201908161034d91906113cc565b5060608201518160030155608082015181600401908161036d91906113cc565b5060a08201518160050160006101000a81548167ffffffffffffffff021916908367ffffffffffffffff16021790555060c08201518160050160086101000a81548160ff0219169083151502179055509050507fd1bc722d88d10fe8291b1e30674752babb1665c5c3a543c3efa5599de8eba94881878787876040516103f795949392919061149e565b60405180910390a180915050949350505050565b60025481565b60008054906101000a900473ffffffffffffffffffffffffffffffffffffffff1673ffffffffffffffffffffffffffffffffffffffff163373ffffffffffffffffffffffffffffffffffffffff161461049f576040517f08c379a0000000000000000000000000000000000000000000000000000000008152600401610496906110bd565b60405180910390fd5b600060036000848152602001908152602001600020905060008160000154036104fd576040517f08c379a00000000000000000000000000000000000000000000000000000000081526004016104f490611129565b60405180910390fd5b6000600460008481526020019081526020016000209050600081600001541415801561052c5750838160010154145b61056b576040517f08c379a00000000000000000000000000000000000000000000000000000000081526004016105629061154b565b60405180910390fd5b8060050160089054906101000a900460ff16156105bd576040517f08c379a00000000000000000000000000000000000000000000000000000000081526004016105b4906115b7565b60405180910390fd5b60018160050160086101000a81548160ff02191690831515021790555060018260040160086101000a81548160ff0219169083151502179055507f6fa5baf3d362648e7a3fa6d9316b7f419fae1d9a08b54fa29ddb8b28b5a89ad684848360020185600101604051610632949392919061165b565b60405180910390a150505050565b600460205280600052604060002060009150905080600001549080600101549080600201805461066f906111ef565b80601f016020809104026020016040519081016040528092919081815260200182805461069b906111ef565b80156106e85780601f106106bd576101008083540402835291602001916106e8565b820191906000526020600020905b8154815290600101906020018083116106cb57829003601f168201915b505050505090806003015490806004018054610703906111ef565b80601f016020809104026020016040519081016040528092919081815260200182805461072f906111ef565b801561077c5780601f106107515761010080835404028352916020019161077c565b820191906000526020600020905b81548152906001019060200180831161075f57829003601f168201915b5050505050908060050160009054906101000a900467ffffffffffffffff16908060050160089054906101000a900460ff16905087565b60008054906101000a900473ffffffffffffffffffffffffffffffffffffffff1681565b60015481565b6003602052806000526040600020600091509050806000015490806001018054610806906111ef565b80601f0160208091040260200160405190810160405280929190818152602001828054610832906111ef565b801561087f5780601f106108545761010080835404028352916020019161087f565b820191906000526020600020905b81548152906001019060200180831161086257829003601f168201915b505050505090806002018054610894906111ef565b80601f01602080910402602001604051908101604052809291908181526020018280546108c0906111ef565b801561090d5780601f106108e25761010080835404028352916020019161090d565b820191906000526020600020905b8154815290600101906020018083116108f057829003601f168201915b5050505050908060030154908060040160009054906101000a900467ffffffffffffffff16908060040160089054906101000a900460ff16905086565b60008060009054906101000a900473ffffffffffffffffffffffffffffffffffffffff1673ffffffffffffffffffffffffffffffffffffffff163373ffffffffffffffffffffffffffffffffffffffff16146109db576040517f08c379a00000000000000000000000000000000000000000000000000000000081526004016109d2906110bd565b60405180910390fd5b60006001600081546109ec90611178565b91905081905590506040518060c001604052808281526020018681526020018581526020018481526020014267ffffffffffffffff1681526020016000151581525060036000838152602001908152602001600020600082015181600001556020820151816001019081610a6091906113cc565b506040820151816002019081610a7691906113cc565b506060820151816003015560808201518160040160006101000a81548167ffffffffffffffff021916908367ffffffffffffffff16021790555060a08201518160040160086101000a81548160ff0219169083151502179055509050507f7669f775aaf4d9e3bcc5eccdea20324f8f554b26c9e8caa78c23b64f9aa4112e81868686604051610b0894939291906116ae565b60405180910390a1809150509392505050565b6000604051905090565b600080fd5b600080fd5b6000819050919050565b610b4281610b2f565b8114610b4d57600080fd5b50565b600081359050610b5f81610b39565b92915050565b600080fd5b600080fd5b6000601f19601f8301169050919050565b7f4e487b7100000000000000000000000000000000000000000000000000000000600052604160045260246000fd5b610bb882610b6f565b810181811067ffffffffffffffff82111715610bd757610bd6610b80565b5b80604052505050565b6000610bea610b1b565b9050610bf68282610baf565b919050565b600067ffffffffffffffff821115610c1657610c15610b80565b5b610c1f82610b6f565b9050602081019050919050565b82818337600083830152505050565b6000610c4e610c4984610bfb565b610be0565b905082815260208101848484011115610c6a57610c69610b6a565b5b610c75848285610c2c565b509392505050565b600082601f830112610c9257610c91610b65565b5b8135610ca2848260208601610c3b565b91505092915050565b60008060008060808587031215610cc557610cc4610b25565b5b6000610cd387828801610b50565b945050602085013567ffffffffffffffff811115610cf457610cf3610b2a565b5b610d0087828801610c7d565b9350506040610d1187828801610b50565b925050606085013567ffffffffffffffff811115610d3257610d31610b2a565b5b610d3e87828801610c7d565b91505092959194509250565b610d5381610b2f565b82525050565b6000602082019050610d6e6000830184610d4a565b92915050565b60008060408385031215610d8b57610d8a610b25565b5b6000610d9985828601610b50565b9250506020610daa85828601610b50565b9150509250929050565b600060208284031215610dca57610dc9610b25565b5b6000610dd884828501610b50565b91505092915050565b600081519050919050565b600082825260208201905092915050565b60005b83811015610e1b578082015181840152602081019050610e00565b60008484015250505050565b6000610e3282610de1565b610e3c8185610dec565b9350610e4c818560208601610dfd565b610e5581610b6f565b840191505092915050565b600067ffffffffffffffff82169050919050565b610e7d81610e60565b82525050565b60008115159050919050565b610e9881610e83565b82525050565b600060e082019050610eb3600083018a610d4a565b610ec06020830189610d4a565b8181036040830152610ed28188610e27565b9050610ee16060830187610d4a565b8181036080830152610ef38186610e27565b9050610f0260a0830185610e74565b610f0f60c0830184610e8f565b98975050505050505050565b600073ffffffffffffffffffffffffffffffffffffffff82169050919050565b6000610f4682610f1b565b9050919050565b610f5681610f3b565b82525050565b6000602082019050610f716000830184610f4d565b92915050565b600060c082019050610f8c6000830189610d4a565b8181036020830152610f9e8188610e27565b90508181036040830152610fb28187610e27565b9050610fc16060830186610d4a565b610fce6080830185610e74565b610fdb60a0830184610e8f565b979650505050505050565b600080600060608486031215610fff57610ffe610b25565b5b600084013567ffffffffffffffff81111561101d5761101c610b2a565b5b61102986828701610c7d565b935050602084013567ffffffffffffffff81111561104a57611049610b2a565b5b61105686828701610c7d565b925050604061106786828701610b50565b9150509250925092565b7f6f6e6c79206f776e657200000000000000000000000000000000000000000000600082015250565b60006110a7600a83610dec565b91506110b282611071565b602082019050919050565b600060208201905081810360008301526110d68161109a565b9050919050565b7f70726f63206e6f7420666f756e64000000000000000000000000000000000000600082015250565b6000611113600e83610dec565b915061111e826110dd565b602082019050919050565b6000602082019050818103600083015261114281611106565b9050919050565b7f4e487b7100000000000000000000000000000000000000000000000000000000600052601160045260246000fd5b600061118382610b2f565b91507fffffffffffffffffffffffffffffffffffffffffffffffffffffffffffffffff82036111b5576111b4611149565b5b600182019050919050565b7f4e487b7100000000000000000000000000000000000000000000000000000000600052602260045260246000fd5b6000600282049050600182168061120757607f821691505b60208210810361121a576112196111c0565b5b50919050565b60008190508160005260206000209050919050565b60006020601f8301049050919050565b600082821b905092915050565b6000600883026112827fffffffffffffffffffffffffffffffffffffffffffffffffffffffffffffffff82611245565b61128c8683611245565b95508019841693508086168417925050509392505050565b6000819050919050565b60006112c96112c46112bf84610b2f565b6112a4565b610b2f565b9050919050565b6000819050919050565b6112e3836112ae565b6112f76112ef826112d0565b848454611252565b825550505050565b600090565b61130c6112ff565b6113178184846112da565b505050565b5b8181101561133b57611330600082611304565b60018101905061131d565b5050565b601f8211156113805761135181611220565b61135a84611235565b81016020851015611369578190505b61137d61137585611235565b83018261131c565b50505b505050565b600082821c905092915050565b60006113a360001984600802611385565b1980831691505092915050565b60006113bc8383611392565b9150826002028217905092915050565b6113d582610de1565b67ffffffffffffffff8111156113ee576113ed610b80565b5b6113f882546111ef565b61140382828561133f565b600060209050601f8311600181146114365760008415611424578287015190505b61142e85826113b0565b865550611496565b601f19841661144486611220565b60005b8281101561146c57848901518255600182019150602085019450602081019050611447565b868310156114895784890151611485601f891682611392565b8355505b6001600288020188555050505b505050505050565b600060a0820190506114b36000830188610d4a565b6114c06020830187610d4a565b81810360408301526114d28186610e27565b90506114e16060830185610d4a565b81810360808301526114f38184610e27565b90509695505050505050565b7f6f66666572206d69736d61746368000000000000000000000000000000000000600082015250565b6000611535600e83610dec565b9150611540826114ff565b602082019050919050565b6000602082019050818103600083015261156481611528565b9050919050565b7f616c726561647920616363657074656400000000000000000000000000000000600082015250565b60006115a1601083610dec565b91506115ac8261156b565b602082019050919050565b600060208201905081810360008301526115d081611594565b9050919050565b600081546115e4816111ef565b6115ee8186610dec565b94506001821660008114611609576001811461161f57611652565b60ff198316865281151560200286019350611652565b61162885611220565b60005b8381101561164a5781548189015260018201915060208101905061162b565b808801955050505b50505092915050565b60006080820190506116706000830187610d4a565b61167d6020830186610d4a565b818103604083015261168f81856115d7565b905081810360608301526116a381846115d7565b905095945050505050565b60006080820190506116c36000830187610d4a565b81810360208301526116d58186610e27565b905081810360408301526116e98185610e27565b90506116f86060830184610d4a565b9594505050505056fea26469706673582212203ced0a1c8d691c5574d2f4a65c89a9df39b4fee256e62ce419c43068b3ad5b4064736f6c63430008140033",
  "linkReferences": {},
  "deployedLinkReferences": {}
}